:020000040800F2
:100000000000082069110008A10F0008A90F0008CE
:10001000B10F0008B90F0008C10F00080000000070
:10002000000000000000000000000000C90F0008F0
:10003000D70F000800000000E50F0008F30F0008CC
:10004000B9110008B9110008B9110008B911000868
:10005000B9110008B9110008B9110008B911000858
:10006000B9110008B9110008B9110008B911000848
:10007000B9110008B9110008B9110008B911000838
:10008000B9110008B9110008B9110008B911000828
:10009000B9110008B9110008B9110008B911000818
:1000A000B9110008B9110008B9110008B911000808
:1000B000B9110008B9110008B9110008B9110008F8
:1000C000B9110008B9110008B9110008B9110008E8
:1000D000B9110008B9110008B9110008B9110008D8
:1000E000B9110008B9110008B9110008B9110008C8
:1000F000B9110008B9110008B9110008B9110008B8
:10010000B9110008B9110008B9110008B9110008A7
:10011000B9110008B9110008B9110008B911000897
:10012000B9110008B9110008B9110008B911000887
:10013000B9110008B9110008B9110008B911000877
:10014000B9110008B9110008B9110008B911000867
:10015000B9110008B9110008B9110008B911000857
:10016000B9110008B9110008B9110008B911000847
:10017000B9110008B9110008B91100080000000009
:10018000B9110008B9110008B9110008B911000827
:10019000B9110008B9110008B9110008B911000817
:1001A000B9110008B9110008B9110008B911000807
:1001B000B9110008B9110008B9110008B9110008F7
:1001C000B9110008B911000800000000B9110008B9
:1001D000B9110008B9110008B9110008B9110008D7
:1001E000B9110008B9110008B9110008B9110008C7
:0801F000B9110008B911000863
:1002000010B5054C237833B9044B13B10448AFF350
:1002100000800123237010BD680000200000000052
:100220007C4A000808B5034B1BB103490348AFF3F0
:10023000008008BD000000006C0000207C4A00081F
:1002400001F0FF01102A2BDB10F0070F08D010F887
:10025000013B013A8B422DD010F0070F42B3F6D18B
:10026000F0B441EA012141EA014122F007047FF0A4
:1002700000070023F0E80256083C85EA010586EAFB
:10028000010685FA47F5A3FA87F586FA47F6A5FA37
:1002900087F68EB9EED1F0BC01F0FF0102F0070243
:1002A00032B110F8013B013A83EA010313B1F8D1EE
:1002B0000020704701387047002D06BF35460338CF
:1002C000073815F0010F07D1013015F4807F02BF08
:1002D000013015F4C03F0130F0BC0138704700BF59
:1002E00053B94AB9002908BF00281CBF4FF0FF319D
:1002F0004FF0FF3000F06AB9ADF1080C6DE904CEA3
:1003000000F006F8DDF804E0DDE9022304B07047F0
:100310002DE9F047089D0C46002B4ED194468C45A4
:100320008646B2FA82F262D94AB1C2F12003914004
:1003300020FA03F30CFA02FC194300FA02FE4FEA1A
:100340001C471FFA8CF6B1FBF7F44FEA1E4307FB7C
:10035000141143EA014304FB06F199420AD91CEB4C
:10036000030304F1FF3080F01281994240F20F81C3
:10037000023C6344591A1FFA8EF3B1FBF7F007FBF6
:10038000101143EA014300FB06F69E420AD91CEB1A
:10039000030300F1FF3180F0FC809E4240F2F980BF
:1003A000634402389B1B40EA044000211DB1D34046
:1003B0000022C5E90032BDE8F0878B4205D90DB1B6
:1003C000C5E9000100210846F5E7B3FA83F10029E9
:1003D00046D1A34202D39042C0F0F080861A64EB6B
:1003E00003030120002DE6D0C5E90063E3E7002AFE
:1003F00040F09080A1EB0C044FEA1C481FFA8CF7E8
:100400000121B4FBF8F64FEA1E4308FB164443EA09
:10041000044307FB06F0984208D91CEB030306F1DE
:10042000FF3402D2984200F2CD8026461C1A1FFAF1
:100430008EF3B4FBF8F008FB104443EA044300FBDE
:1004400007F79F4208D91CEB030300F1FF3402D2E7
:100450009F4200F2B0802046DB1B40EA0640A5E741
:10046000C1F120068B4022FA06F71F4320FA06FC52
:1004700004FA01F343EA0C03F44000FA01F8380CE3
:100480004FEA1349B4FBF0FE1FFA87FC00FB1E4441
:1004900049EA04440EFB0CF9A14502FA01F20AD91B
:1004A0003C190EF1FF3A80F08480A14540F2818032
:1004B000AEF1020E3C44A4EB09041FFA83F9B4FB2D
:1004C000F0F300FB134449EA044403FB0CFCA4458D
:1004D00007D93C1903F1FF3067D2A44565D9023B27
:1004E0003C4443EA0E40A0FB0293A4EB0C049C4264
:1004F000CE469C4651D34ED055B1B8EB0E0364EBBB
:100500000C0404FA06F6CB401E43CC40C5E9006457
:10051000002150E7C2F1200320FA03F10CFA02FC9B
:1005200024FA03F394400C434FEA1C4800FA02FEFD
:100530001FFA8CF7B3FBF8F008FB1031230C43EAE9
:10054000014300FB07F1994208D91CEB030300F1BA
:10055000FF362CD299422AD9023863445B1AA4B2DE
:10056000B3FBF8F108FB113344EA034401FB07F342
:10057000A34208D91CEB040401F1FF3613D2A342B5
:1005800011D902396444E41A41EA004139E70446CA
:10059000F0E6084606E7C845AED2B9EB020E63EBBB
:1005A000070C0138A8E73146EDE7034699E73046E6
:1005B000D4E7D6467FE7634402384DE70646234634
:1005C00008460FE7023E634430E700BF704700BFB4
:1005D00080B582B000AF0023FB711F4803F0EAFB37
:1005E0001E4B00221A601E4B00221A601D4B002277
:1005F0001A601D4B01221A7040F2094200211B486B
:1006000003F0B8FC40F20941184800F005F9034630
:10061000BB80BB88002B07D0BB881946134800F06D
:1006200029F80346FB7101E00123FB71FB79002BE4
:1006300006D00F4803F0BEFB012000F0A9F906E048
:10064000002000F0A5F9084B1B78002BD4D1FB79D2
:1006500018460837BD4680BD944A00089004002023
:1006600098040020940400208D04002084000020C1
:10067000B44A000880B58AB000AF78600B467B8032
:10068000012387F827307B68002B00F0AD807B8842
:10069000002B00F0A9807B683B623B6A5B78002BF3
:1006A00004D13B6A1B79022B00F09580514B1B78DB
:1006B000042B00F28C8001A252F823F0D10600082E
:1006C000DF060008070700083D070008A707000825
:1006D000494803F06FFB002387F8273084E07B68EC
:1006E000FB60FB685B78002B77D1FB681B79002BE4
:1006F00073D1424803F05EFB3E4B02221A70002386
:1007000087F8273069E07B683B613B695B78022BA7
:1007100065D13B695B683A4A13603B699B68394A1B
:100720001360374B1B681946374803F0DBFA314B2F
:1007300003221A70002387F8273050E07B68BB61E2
:10074000BB699A78DB781B021343FB82BB695B7839
:10075000012B46D17B68181D2C4B1B68002B0CBF4E
:1007600001230023DAB2FB8A194600F037F9034669
:100770007B757B7D002B34D1244B1B68990A204B61
:100780001B689B0A1A46224803F0ACFA1F4B1A68F2
:100790001B4B1B689A4202D3164B04221A7000238B
:1007A00087F827301DE07B68FB61FB695B78002BD5
:1007B00019D1FB691B79012B15D1164803F0FAFA00
:1007C0000C4B00221A70002387F827300BE001231E
:1007D00087F8273008E000BF06E000BF04E000BF54
:1007E00002E000BF00E000BF97F827301846283726
:1007F000BD4680BD8D040020C44A0008DC4A0008C4
:100800009004002094040020F84A00089804002076
:10081000204B00082C4B000880B584B000AF7860F6
:100820000B467B800023BB81BB897A68D1184FF0CF
:10083000FF330122544802F04AFC0346FB81B7F91A
:100840000E30002B7FD1BB895A1CBA811A467B68B7
:1008500013441B78AA2B02D00123FB817CE0BB89C7
:100860005A1CBA811A467B6899184FF0FF3301224F
:10087000454802F02CFC0346FB81B7F90E30002BF3
:1008800063D1BB897A68D1184FF0FF3302223E480A
:1008900002F01DFC0346FB81B7F90E30002B56D148
:1008A000BB897A6813441B883B81BB890233BB81B7
:1008B00000237B8114E0BB895A1CBA811A467B68ED
:1008C00099184FF0FF3301222F4802F000FC034635
:1008D000FB81B7F90E30002B07D17B8901337B8177
:1008E0007A893B899A42E6D300E000BFBB897A68E7
:1008F000D1184FF0FF330422234802F0E8FB0346EF
:10090000FB81B7F90E30002B23D1BB890433BB81A7
:10091000BB897A68D1184FF0FF3301221A4802F0E0
:10092000D6FB0346FB81B7F90E30002B13D1BB89F0
:100930005A1CBA811A467B6813441B78BB2B0BD018
:100940000123FB8108E000BF06E000BF04E000BF18
:1009500002E000BF00E000BFB7F90E30002B01D06D
:100960000023BB817A88BB899A4207D27B88BA89E7
:100970001946064803F0B6F90023BB81BB89184627
:100980001037BD4680BD00BF9C040020484B0008C6
:1009900080B586B000AF0346FB71AA233B730323E7
:1009A0007B730123FB81FB793B7400237B74002361
:1009B000BB740023FB7400233B75BB237B7507F1DD
:1009C0000C014FF0FF330A22034802F0F7FA00BF90
:1009D0001837BD4680BD00BF9C040020B0B58AB06A
:1009E00000AF78600B467B8013467B7000F09EFD65
:1009F000034687F8273097F82730002B55D17B78AE
:100A0000002B19D02E4803F0D5F90023FB600523F5
:100A10007B610223BB610223FB6107F1080207F13E
:100A20000C031146184600F0E3FE034687F8273012
:100A300097F82730002B3AD100233B6224E0214B6A
:100A40001B68214919443B6A7A6813441B78DBB25E
:100A500000221C46154622462B46002000F00AFDC7
:100A6000034687F8273097F82730002B05D1154B20
:100A70001B680133134A136003E0144803F09AF92A
:100A800006E03B6A01333B627B883A6A9A42D6DBD6
:100A900097F82730002B0CD100F06AFD034687F849
:100AA000273097F82730002B04E000BF02E000BF9A
:100AB00000E000BF97F8273018462837BD46B0BD84
:100AC0008C4B00089804002000000408AC4B000880
:100AD00080B584B000AF00F070FB00F053F800F078
:100AE0000DF900F0DBF800F0A9F800230122194607
:100AF0001D4803F0F7F8012201211C4801F03AF9E2
:100B000000F0ACFB034603F6B833FB60184803F073
:100B100051F94FF40051174801F014F90346FB72E4
:100B200000F09CFB7860FB7A002B04D17A68FB68AC
:100B30009A4200D8EDE7FB7A012B11D10E4803F061
:100B400039F9FFF745FD0346002B04D00B4803F0AD
:100B500031F900BFFDE70A4803F02CF900F079FCF9
:100B600000F038F900BFFDE7C04B00080004024068
:100B7000DC4B000800080240144C0008344C00080C
:100B8000544C000880B594B000AF07F11C03342228
:100B90000021184603F0EEF907F1080300221A605D
:100BA0005A609A60DA601A61224B1B6C214A43F04A
:100BB000805313641F4B1B6C03F080537B607B6876
:100BC0001D4B1B6823F440431B4A43F480431360CE
:100BD000194B1B6803F440433B603B680223FB61F5
:100BE0000123BB621023FB6200237B6307F11C031C
:100BF000184601F0D9F80346002B01D000F004F9A3
:100C00000F23BB600023FB6000233B6100237B615B
:100C10000023BB6107F108030021184601F072FBB5
:100C20000346002B01D000F0EFF800BF5037BD465F
:100C300080BD00BF003802400070004080B500AFAA
:100C4000144B154A1A60134B4FF4E1325A60114BA2
:100C500000229A600F4B0022DA600E4B00221A61CC
:100C60000C4B0C225A610B4B00229A61094B00225B
:100C7000DA61084B00221A62064B00225A620548CC
:100C800002F04EF90346002B01D000F0BDF800BF82
:100C900080BD00BF9C0400200044004080B500AF30
:100CA000144B154A1A60134B4FF4E1325A60114B42
:100CB00000229A600F4B0022DA600E4B00221A616C
:100CC0000C4B0C225A610B4B00229A61094B0022FB
:100CD000DA61084B00221A62064B00225A6205486C
:100CE00002F01EF90346002B01D000F08DF800BF82
:100CF00080BD00BF240500200048004080B588B0BA
:100D000000AF07F10C0300221A605A609A60DA60A3
:100D10001A61244B1B6B234A43F004031363214BDA
:100D20001B6B03F00403BB60BB681E4B1B6B1D4AAF
:100D300043F0020313631B4B1B6B03F002037B6046
:100D40007B68184B1B6B174A43F008031363154B62
:100D50001B6B03F008033B603B6800220121124833
:100D600001F008F84FF40053FB6000233B610023BF
:100D70007B6107F10C0319460C4800F037FE012394
:100D8000FB6001233B6100237B610023BB6107F112
:100D90000C031946044800F029FE00BF2037BD4669
:100DA00080BD00BF0038024000040240000802403D
:100DB00080B582B000AF7860391D4FF0FF3301225B
:100DC000034802F0FBF87B6818460837BD4680BD33
:100DD0002405002080B582B000AF084802F0EAFF89
:100DE000074B1B687B6000220121064800F0C2FF10
:100DF0007B68984700BF0837BD4680BD804C00081F
:100E0000040004080004024080B400AF72B600BFC2
:100E100000BFFDE780B483B000AF0F4B1B6C0E4AE0
:100E200043F0805313640C4B1B6C03F080537B60C6
:100E30007B68094B5B6C084A43F480435364064B60
:100E40005B6C03F480433B603B6800BF0C37BD46DE
:100E50005DF8047B704700BF0038024080B5B0B039
:100E600000AF786007F1AC0300221A605A609A6004
:100E7000DA601A6107F11C0390220021184603F082
:100E800079F87B681B68424A93423BD18023FB611F
:100E900000237B6607F11C03184601F019FC03468A
:100EA000002B01D0FFF7B0FF3A4B1B6C394A43F4DB
:100EB00000331364374B1B6C03F40033BB61BB6915
:100EC000344B1B6B334A43F008031363314B1B6BEA
:100ED00003F008037B617B696023C7F8AC30022311
:100EE000C7F8B0300023C7F8B4300323C7F8B830D0
:100EF0000723C7F8BC3007F1AC031946264800F0B9
:100F000075FD41E07B681B68244A93423CD14FF455
:100F10008073FB610023BB6607F11C03184601F0D8
:100F2000D7FB0346002B01D0FFF76EFF194B1B6C5C
:100F3000184A43F480231364164B1B6C03F480237C
:100F40003B613B69134B1B6B124A43F0080313636D
:100F5000104B1B6B03F00803FB60FB684FF44073FE
:100F6000C7F8AC300223C7F8B0300023C7F8B4305C
:100F70000323C7F8B8300723C7F8BC3007F1AC0328
:100F80001946054800F032FD00BFC037BD4680BDA0
:100F90000044004000380240000C0240004800407D
:100FA00080B400AF00BFFDE780B400AF00BFFDE735
:100FB00080B400AF00BFFDE780B400AF00BFFDE725
:100FC00080B400AF00BFFDE780B400AF00BFBD46F6
:100FD0005DF8047B704780B400AF00BFBD465DF88C
:100FE000047B704780B400AF00BFBD465DF8047B52
:100FF000704780B500AF00F01DF900BF80BD80B51F
:1010000086B000AFF860B9607A6000237B610AE0C7
:10101000AFF300800146BB685A1CBA60CAB21A70AE
:101020007B6901337B617A697B689A42F0DB7B687C
:1010300018461837BD4680BD80B586B000AFF86051
:10104000B9607A6000237B6109E0BB685A1CBA6012
:101050001B781846FFF7ACFE7B6901337B617A6928
:101060007B689A42F1DB7B6818461837BD4680BD25
:1010700080B483B000AF78604FF0FF3318460C3770
:10108000BD465DF8047B704780B483B000AF7860E4
:1010900039603B684FF400525A60002318460C3701
:1010A000BD465DF8047B704780B483B000AF7860C4
:1010B000012318460C37BD465DF8047B704780B4A9
:1010C00085B000AFF860B9607A6000231846143725
:1010D000BD465DF8047B704780B586B000AF786090
:1010E000144A154BD31A7B617B693B61134B1B6818
:1010F000002B02D1114B124A1A60104B1A687B6800
:1011000013443A699A4207D202F082FF03460C2246
:101110001A604FF0FF3309E0084B1B68FB60074B78
:101120001A687B681344054A1360FB681846183731
:10113000BD4680BD0000082000040000AC05002072
:101140002007002080B400AF064BD3F88830054A52
:1011500043F47003C2F8883000BFBD465DF8047BDD
:10116000704700BF00ED00E0DFF834D0FFF7EAFF82
:101170000C480D490D4A002302E0D458C4500433F2
:10118000C4188C42F9D30A4A0A4C002301E01360C8
:101190000432A242FBD302F041FFFFF799FC7047F3
:1011A000000008200000002068000020F04C00082B
:1011B000680000201C070020FEE780B500AF032078
:1011C00000F020F90F2000F005F8FFF723FE0023C0
:1011D000184680BD80B582B000AF7860124B1A68A7
:1011E000124B1B7819464FF47A73B3FBF1F3B2FB41
:1011F000F3F3184600F031F90346002B01D0012328
:101200000EE07B680F2B0AD8002279684FF0FF3080
:1012100000F003F9064A7B681360002300E0012315
:1012200018460837BD4680BD000000200800002099
:101230000400002080B400AF064B1B781A46064B12
:101240001B681344044A136000BFBD465DF8047B6D
:10125000704700BF08000020B005002080B400AF38
:10126000034B1B681846BD465DF8047B704700BF02
:10127000B005002080B485B000AF78607B6803F0D3
:101280000703FB600B4BDB68BB60BA684FF6FF03DC
:101290001340BB60FB681A02BB681A43064B13433A
:1012A000BB60044ABB68D36000BF1437BD465DF81D
:1012B000047B704700ED00E00000FA0580B400AF49
:1012C000044BDB681B0A03F007031846BD465DF8B4
:1012D000047B704700ED00E080B483B000AF0346AC
:1012E0003960FB7197F90730002B0ADB3B68DAB2F3
:1012F0000C4997F907301201D2B20B4483F800234E
:101300000AE03B68DAB20849FB7903F00F03043BBB
:101310001201D2B20B441A7600BF0C37BD465DF8FD
:10132000047B704700E100E000ED00E080B489B08C
:1013300000AFF860B9607A60FB6803F00703FB61F7
:10134000FB69C3F10703042B28BF0423BB61FB69BE
:101350000433062B02D9FB69033B00E000237B61C9
:101360004FF0FF32BB6902FA03F3DA43BB681A405D
:101370007B699A404FF0FF317B6901FA03F3D9434F
:101380007B680B40134318462437BD465DF8047B49
:101390007047000080B400AFBFF34F8F00BF064B13
:1013A000DB6803F4E0620449044B1343CB60BFF3F2
:1013B0004F8F00BF00BFFDE700ED00E00400FA051D
:1013C00080B582B000AF78607B68013BB3F1807F6D
:1013D00001D301230FE00A4A7B68013B53600F21D0
:1013E0004FF0FF30FFF778FF054B00229A60044B67
:1013F00007221A60002318460837BD4680BD00BF8B
:1014000010E000E080B582B000AF78607868FFF748
:1014100031FF00BF0837BD4680BD80B586B000AF44
:101420000346B9607A60FB7300237B61FFF746FFD8
:1014300078617A68B9687869FFF778FF024697F9AA
:101440000F3011461846FFF747FF00BF1837BD465B
:1014500080BD80B500AFFFF79DFF80B582B000AFC3
:1014600078607868FFF7ACFF034618460837BD463A
:1014700080BD000080B586B000AFF860B960C7E9F4
:1014800000230123FB75274B1B7D012B01D1022378
:1014900043E0244B01221A754CF2503000F078F8EA
:1014A0000346FB75FB7D002B33D1FB68032B23D850
:1014B00001A252F823F000BFC9140008D514000897
:1014C000E1140008ED1400083B781946B86800F0F4
:1014D00021F912E03B881946B86800F0F5F80CE0F5
:1014E0003B681946B86800F0C9F806E0D7E9002360
:1014F000B86800F08DF800E000BF4CF2503000F00A
:1015000047F80346FB75084B1B69074A23F00103A4
:101510001361044B00221A75FB7D18461837BD462F
:1015200080BD00BFB4050020003C024080B483B001
:1015300000AF0023FB710B4B1B69002B0BDA094B2F
:10154000094A5A60074B094A5A60064B1B69002B2F
:1015500001DA0123FB71FB7918460C37BD465DF8B3
:10156000047B7047003C024023016745AB89EFCD07
:1015700080B400AF054B1B69044A43F0004313617C
:1015800000231846BD465DF8047B7047003C0240CE
:1015900080B584B000AF78600023FB601A4B002256
:1015A0009A61FFF75BFEF86010E07B68B3F1FF3FE4
:1015B0000CD07B68002B07D0FFF750FE0246FB687B
:1015C000D31A7A689A4201D2032319E00F4BDB68E1
:1015D00003F48033002BE8D10C4BDB6803F0F203FB
:1015E000002B03D000F0BAF8012309E0074BDB68B9
:1015F00003F00103002B02D0044B0122DA60002328
:1016000018461037BD4680BDB4050020003C02409E
:1016100080B485B000AFF860C7E90023164B1B69A2
:10162000154A23F440731361134B1B69124A43F4A8
:1016300040731361104B1B690F4A43F001031361A0
:10164000FB683A681A60BFF36F8F00BFD7E90001EB
:101650004FF000024FF000030A000023F968043144
:1016600013460B60BFF34F8F00BF00BF1437BD465A
:101670005DF8047B704700BF003C024080B483B03B
:1016800000AF786039600F4B1B690E4A23F440733A
:1016900013610C4B1B690B4A43F400731361094B34
:1016A0001B69084A43F0010313617B683A681A60BA
:1016B000BFF34F8F00BF00BF0C37BD465DF8047B02
:1016C000704700BF003C024080B483B000AF786038
:1016D0000B467B800E4B1B690D4A23F4407313614C
:1016E0000B4B1B690A4A43F480731361084B1B6957
:1016F000074A43F0010313617B687A881A80BFF3BD
:101700004F8F00BF00BF0C37BD465DF8047B7047AC
:10171000003C024080B483B000AF78600B46FB70A1
:101720000D4B1B690C4A23F4407313610A4B0A4AA0
:101730001B691361084B1B69074A43F001031361DE
:101740007B68FA781A70BFF34F8F00BF00BF0C3769
:10175000BD465DF8047B7047003C024080B400AF9A
:10176000214BDB6803F00203002B05D01F4B9B6964
:1017700043F020031D4A93611B4BDB6803F0100309
:10178000002B05D0194B9B6943F01003174A936156
:10179000154BDB6803F02003002B05D0134B9B692E
:1017A00043F00803114A93610F4BDB6803F04003D9
:1017B000002B05D00D4B9B6943F004030B4A93614A
:1017C000094BDB6803F08003002B05D0074B9B69B6
:1017D00043F00203054A9361034BF222DA6000BF33
:1017E000BD465DF8047B7047003C0240B405002014
:1017F00080B584B000AF786039600123FB730023AB
:10180000BB60304B1B7D012B01D1022356E02D4BD9
:1018100001221A754CF25030FFF7BAFE0346FB73F3
:10182000FB7B002B46D13B684FF0FF321A607B6890
:101830001B68012B15D17B681B69DAB27B685B687A
:101840001946104600F044F84CF25030FFF7A0FE65
:101850000346FB731C4B1A691B491C4B13400B615D
:1018600028E07B689B68BB601CE07B681B69DBB27F
:101870001946B86800F068F84CF25030FFF788FE5F
:101880000346FB73104B1B690F4A23F0FA031361E5
:10189000FB7B002B03D03B68BA681A600AE0BB6888
:1018A0000133BB607B68DA687B689B681344BA6865
:1018B0009A42DAD3034B00221A75FB7B1846103785
:1018C000BD4680BDB4050020003C0240FB7FFFFF09
:1018D00080B483B000AF03463960FB71194B1B69BC
:1018E000184A23F4407313613B68032B07D1154B4F
:1018F0001A69144948F2040313430B610FE03B6873
:10190000022B06D10F4B1B690E4A43F400431361AF
:1019100005E00C4B1B690B4A43F004031361094BB0
:101920001A69FB791B021343064A43F4803313619F
:10193000BFF34F8F00BF00BF0C37BD465DF8047B7F
:10194000704700BF003C024080B485B000AF7860B3
:101950000B46FB700023FB60FB78002B02D10023B9
:10196000FB6010E0FB78012B03D14FF48073FB6028
:1019700009E0FB78022B03D14FF40073FB6002E017
:101980004FF44073FB607B680B2B02D97B680433F8
:101990007B60154B1B69144A23F440731361124B8F
:1019A0001A691149FB6813430B610F4B1B690E4AFF
:1019B00023F0F80313610C4B1A697B68DB001343B7
:1019C000094A43F002031361074B1B69064A43F4BB
:1019D00080331361BFF34F8F00BF00BF1437BD4684
:1019E0005DF8047B704700BF003C024080B489B0C2
:1019F00000AF786039600023FB6100237B61002326
:101A00003B610023BB610023FB6175E10122FB699F
:101A100002FA03F37B613B681B687A6913403B6100
:101A20003A697B699A4240F064813B685B6803F0E5
:101A30000303012B05D03B685B6803F00303022B13
:101A400030D17B689B68BB61FB695B00032202FAB3
:101A500003F3DB43BA691340BB613B68DA68FB6997
:101A60005B0002FA03F3BA691343BB617B68BA698E
:101A70009A607B685B68BB610122FB6902FA03F331
:101A8000DB43BA691340BB613B685B681B0903F029
:101A90000102FB6902FA03F3BA691343BB617B6875
:101AA000BA695A603B685B6803F00303032B17D0E5
:101AB0007B68DB68BB61FB695B00032202FA03F30E
:101AC000DB43BA691340BB613B689A68FB695B0002
:101AD00002FA03F3BA691343BB617B68BA69DA603F
:101AE0003B685B6803F00303022B23D1FB69DA0830
:101AF0007B68083253F82230BB61FB6903F00703AF
:101B00009B000F2202FA03F3DB43BA691340BB6167
:101B10003B681A69FB6903F007039B0002FA03F3B1
:101B2000BA691343BB61FB69DA087B680832B9699B
:101B300043F822107B681B68BB61FB695B000322D2
:101B400002FA03F3DB43BA691340BB613B685B688D
:101B500003F00302FB695B0002FA03F3BA69134363
:101B6000BB617B68BA691A603B685B6803F4403309
:101B7000002B00F0BE80664B5B6C654A43F48043EB
:101B80005364634B5B6C03F48043FB60FB68614A06
:101B9000FB699B08023352F82330BB61FB6903F0F9
:101BA00003039B000F2202FA03F3DB43BA691340DD
:101BB000BB617B68584A934237D07B68574A93424F
:101BC00031D07B68564A93422BD07B68554A93426A
:101BD00025D07B68544A93421FD07B68534A934276
:101BE00019D07B68524A934213D07B68514A934282
:101BF0000DD07B68504A934207D07B684F4A93428E
:101C000001D1092312E00A2310E008230EE0072384
:101C10000CE006230AE0052308E0042306E0032382
:101C200004E0022302E0012300E00023FA6902F04D
:101C3000030292009340BA691343BB613549FB69C3
:101C40009B080233BA6941F823203D4B9B68BB6176
:101C50003B69DB43BA691340BB613B685B6803F4D3
:101C60008013002B03D0BA693B691343BB61344A2C
:101C7000BB699360324BDB68BB613B69DB43BA698C
:101C80001340BB613B685B6803F40013002B03D077
:101C9000BA693B691343BB61294ABB69D360284BCE
:101CA0005B68BB613B69DB43BA691340BB613B685E
:101CB0005B6803F40033002B03D0BA693B6913431C
:101CC000BB611F4ABB6953601D4B1B68BB613B690D
:101CD000DB43BA691340BB613B685B6803F4803344
:101CE000002B03D0BA693B691343BB61144ABB693B
:101CF0001360FB690133FB61FB690F2B7FF686AE36
:101D000000BF00BF2437BD465DF8047B704700BFAD
:101D10000038024000380140000002400004024048
:101D200000080240000C0240001002400014024073
:101D300000180240001C0240002002400024024023
:101D4000003C014080B485B000AF78600B467B80DA
:101D50007B681A697B881340002B02D00123FB7338
:101D600001E00023FB73FB7B18461437BD465DF88A
:101D7000047B704780B483B000AF78600B467B80F3
:101D800013467B707B78002B03D07A887B689A613E
:101D900003E07B881A047B689A6100BF0C37BD465C
:101DA0005DF8047B7047000080B586B000AF7860B6
:101DB0000023FB757B68002B01D101239BE27B682C
:101DC0001B6803F00103002B00F08780964B9B6893
:101DD00003F00C03042B0CD0934B9B6803F00C0313
:101DE000082B12D1904B5B6803F48003B3F5800F8E
:101DF0000BD18D4B1B6803F40033002B6CD07B6838
:101E00005B68002B68D1012375E27B685B68B3F5E2
:101E1000803F06D1844B1B68834A43F480331360B0
:101E20002EE07B685B68002B0CD17F4B1B687E4AE1
:101E300023F4803313607C4B1B687B4A23F480239C
:101E400013601DE07B685B68B3F5A02F0CD1764B67
:101E50001B68754A43F480231360734B1B68724AF6
:101E600043F4803313600BE06F4B1B686E4A23F41E
:101E7000803313606C4B1B686B4A23F48023136020
:101E80007B685B68002B13D0FFF7E8F9386108E046
:101E9000FFF7E4F902463B69D31A642B01D9032307
:101EA00029E2614B1B6803F40033002BF0D014E0EF
:101EB000FFF7D4F9386108E0FFF7D0F902463B6933
:101EC000D31A642B01D9032315E2574B1B6803F483
:101ED0000033002BF0D100E000BF7B681B6803F0EB
:101EE0000203002B69D0504B9B6803F00C03002BBE
:101EF0000BD04D4B9B6803F00C03082B1CD14A4BB5
:101F00005B6803F48003002B16D1474B1B6803F07A
:101F10000203002B05D07B68DB68012B01D0012375
:101F2000E9E1414B1B6823F0F8027B681B69DB0089
:101F30003D4913430B6040E07B68DB68002B23D0F6
:101F4000394B1B68384A43F001031360FFF786F9E9
:101F5000386108E0FFF782F902463B69D31A022B89
:101F600001D90323C7E1304B1B6803F00203002BA8
:101F7000F0D02D4B1B6823F0F8027B681B69DB0057
:101F8000294913430B6018E0274B1B68264A23F0AE
:101F900001031360FFF762F9386108E0FFF75EF9AB
:101FA00002463B69D31A022B01D90323A3E11E4B3E
:101FB0001B6803F00203002BF0D17B681B6803F061
:101FC0000803002B38D07B685B69002B19D0164BB7
:101FD0005B6F154A43F001035367FFF73FF9386120
:101FE00008E0FFF73BF902463B69D31A022B01D9FF
:101FF000032380E10C4B5B6F03F00203002BF0D056
:102000001AE0094B5B6F084A23F001035367FFF79F
:1020100025F938610AE0FFF721F902463B69D31A36
:10202000022B03D9032366E100380240924B5B6F19
:1020300003F00203002BEED17B681B6803F004035E
:10204000002B00F0A4808C4B1B6C03F08053002B02
:102050000DD1894B1B6C884A43F080531364864B27
:102060001B6C03F08053BB60BB680123FB75834B83
:102070001B6803F48073002B18D1804B1B687F4AC8
:1020800043F480731360FFF7E9F8386108E0FFF765
:10209000E5F802463B69D31A642B01D903232AE1F0
:1020A000764B1B6803F48073002BF0D07B689B6831
:1020B000012B06D1704B1B6F6F4A43F0010313676E
:1020C0002DE07B689B68002B0CD16B4B1B6F6A4A21
:1020D00023F001031367684B1B6F674A23F0040367
:1020E00013671CE07B689B68052B0CD1624B1B6F50
:1020F000614A43F0040313675F4B1B6F5E4A43F072
:10210000010313670BE05C4B1B6F5B4A23F0010379
:102110001367594B1B6F584A23F0040313677B68FE
:102120009B68002B15D0FFF799F838610AE0FFF79C
:1021300095F802463B69D31A41F28832934201D99D
:102140000323D8E04C4B1B6F03F00203002BEED0AF
:1021500014E0FFF783F838610AE0FFF77FF80246E2
:102160003B69D31A41F28832934201D90323C2E07A
:10217000414B1B6F03F00203002BEED1FB7D012BC3
:1021800005D13D4B1B6C3C4A23F0805313647B68A4
:102190009B69002B00F0AE80374B9B6803F00C036B
:1021A000082B6DD07B689B69022B4BD1324B1B688F
:1021B000314A23F080731360FFF750F8386108E06C
:1021C000FFF74CF802463B69D31A022B01D90323CF
:1021D00091E0294B1B6803F00073002BF0D17B6862
:1021E000DA697B681B6A1A437B685B6A9B011A4346
:1021F0007B689B6A5B08013B1B041A437B68DB6AB4
:102200001B061A437B681B6B1B071B4913434B6060
:10221000194B1B68184A43F080731360FFF71EF8D0
:10222000386108E0FFF71AF802463B69D31A022B1F
:1022300001D903235FE0104B1B6803F00073002BF0
:10224000F0D057E00C4B1B680B4A23F080731360EF
:10225000FFF704F8386108E0FFF700F802463B6931
:10226000D31A022B01D9032345E0034B1B6803F06B
:102270000073002BF0D13DE00038024000700040B8
:102280001F4B5B68FB607B689B69012B30D0FB6850
:1022900003F480027B68DB699A4229D1FB6803F072
:1022A0003F027B681B6A9A4222D1FA6847F6C073E4
:1022B00013407A68526A9201934219D1FB6803F481
:1022C00040327B689B6A5B08013B1B049A420FD13A
:1022D000FB6803F070627B68DB6A1B069A4207D1D9
:1022E000FB6803F0E0427B681B6B1B079A4201D03E
:1022F000012300E0002318461837BD4680BD00BF0B
:102300000038024080B584B000AF786039600023A7
:10231000FB607B68002B01D10123D0E06A4B1B6876
:1023200003F00F033A689A4210D9674B1B6823F0F9
:102330000F0265493B6813430B60634B1B6803F056
:102340000F033A689A4201D00123B8E07B681B680A
:1023500003F00203002B20D07B681B6803F004030A
:10236000002B05D0594B9B68584A43F4E0539360C7
:102370007B681B6803F00803002B05D0534B9B6858
:10238000524A43F460439360504B9B6823F0F00241
:102390007B689B684D4913438B607B681B6803F027
:1023A0000103002B40D07B685B68012B07D1474BB2
:1023B0001B6803F40033002B15D101237FE07B68F9
:1023C0005B68022B07D1414B1B6803F00073002BA5
:1023D00009D1012373E03D4B1B6803F00203002B7E
:1023E00001D101236BE0394B9B6823F003027B682A
:1023F0005B68364913438B60FEF730FFF8600AE0F4
:10240000FEF72CFF0246FB68D31A41F28832934252
:1024100001D9032353E02D4B9B6803F00C027B682A
:102420005B689B009A42EBD1274B1B6803F00F03BC
:102430003A689A4210D2244B1B6823F00F022249BB
:102440003B6813430B60204B1B6803F00F033A6893
:102450009A4201D0012332E07B681B6803F0040339
:10246000002B08D0194B9B6823F4E0527B68DB6893
:10247000164913438B607B681B6803F00803002B2D
:1024800009D0124B9B6823F460427B681B69DB0018
:102490000E4913438B6000F021F802460B4B9B68FA
:1024A0001B0903F00F030A49CB5C22FA03F3094A24
:1024B0001360094B1B681846FEF78CFE0023184674
:1024C0001037BD4680BD00BF003C024000380240CE
:1024D000944C000800000020040000202DE9B04FBB
:1024E00090B000AF00237B630023FB6300233B63BA
:1024F0000023BB63594B9B6803F00C03082B0DD0E2
:10250000082B00F2A180002B02D0042B03D09BE00B
:10251000534BBB639BE0534BBB6398E04F4B5B68F3
:1025200003F03F037B634D4B5B6803F48003002B98
:1025300028D04A4B5B689B0900223B627A623B6A67
:10254000C3F308000021474B03FB01F2002300FB0B
:1025500003F31344434AA0FB0212FA620A46BA622A
:10256000FA6A1344FB627B6B0022BB61FA61D7E914
:102570000623D7E90A01FDF7B3FE02460B461346D0
:10258000FB6353E0354B5B689B0900223B617A613A
:102590003B69C3F3080A4FF0000B52465B464FF00D
:1025A00000004FF00001590141EAD261500102469A
:1025B0000B46B2EB0A0863EB0B094FF000024FF039
:1025C00000034FEA891343EA98634FEA8812B2EB9B
:1025D000080463EB09054FF000024FF00003EB0025
:1025E00043EA5473E20014461D4614EB0A033B60B1
:1025F00045EB0B037B604FF000024FF00003D7E97F
:10260000004529468B02214643EA915321468A021E
:10261000104619467B6B0022BB60FA60D7E90223A3
:10262000FDF75EFE02460B461346FB630B4B5B68F1
:102630001B0C03F0030301335B003B63FA6B3B6B42
:10264000B2FBF3F3BB6302E0054BBB6300BFBB6BA4
:1026500018464037BD46BDE8B08F00BF0038024085
:102660000024F40040787D0180B400AF034B1B6868
:102670001846BD465DF8047B704700BF000000208F
:1026800080B500AFFFF7F0FF0246054B9B689B0A41
:1026900003F007030349CB5C22FA03F3184680BD1D
:1026A00000380240A44C000880B500AFFFF7DCFF03
:1026B0000246054B9B685B0B03F007030349CB5CA9
:1026C00022FA03F3184680BD00380240A44C0008EB
:1026D00080B588B000AF786000237B6100233B6148
:1026E0000023FB600023FB610023BB617B681B6848
:1026F00003F00103002B12D0694B9B68684A23F456
:1027000000039360664B9A687B685B6B6449134374
:102710008B607B685B6B002B01D10123FB617B68C5
:102720001B6803F40023002B17D05D4BD3F88C30CB
:1027300023F440127B68DB6B59491343C1F88C309A
:102740007B68DB6BB3F5801F01D10123FB617B68E4
:10275000DB6B002B01D10123BB617B681B6803F499
:102760008013002B17D04E4BD3F88C3023F440024B
:102770007B681B6C4A491343C1F88C307B681B6C27
:10278000B3F5800F01D10123FB617B681B6C002B2B
:1027900001D10123BB617B681B6803F08073002BB0
:1027A00001D00123FB617B681B6803F02003002B31
:1027B00000F08B803A4B1B6C394A43F08053136412
:1027C000374B1B6C03F08053BB60BB68354B1B68F9
:1027D000344A43F480731360FEF740FD786108E0EB
:1027E000FEF73CFD02467B69D31A642B01D9032313
:1027F0008FE32C4B1B6803F48073002BF0D0284B25
:102800001B6F03F440733B613B69002B35D07B6841
:102810001B6B03F440733A699A422ED0204B1B6F16
:1028200023F440733B611E4B1B6F1D4A43F48033FE
:1028300013671B4B1B6F1A4A23F480331367184A24
:102840003B691367164B1B6F03F00103012B14D177
:10285000FEF704FD78610AE0FEF700FD02467B69A1
:10286000D31A41F28832934201D9032351E30C4B2E
:102870001B6F03F00203002BEED07B681B6B03F48D
:102880004073B3F5407F11D1054B9B6823F4F812D8
:102890007B68196B044B0B40014913438B600BE0C1
:1028A0000038024000700040FFFCFF0FAC4B9B68FB
:1028B000AB4A23F4F8139360A94B1A6F7B681B6B28
:1028C000C3F30B03A64913430B677B681B6803F034
:1028D0001003002B10D0A24BD3F88C30A04A23F069
:1028E0008073C2F88C309E4BD3F88C207B689B6B36
:1028F0009B491343C1F88C307B681B6803F4804309
:10290000002B0AD0964BD3F8903023F440327B68EA
:102910005B6E93491343C1F890307B681B6803F4E6
:102920000043002B0AD08E4BD3F8903023F4402282
:102930007B689B6E8A491343C1F890307B681B68A3
:1029400003F48033002B0AD0854BD3F8903023F466
:1029500040127B68DB6E82491343C1F890307B687C
:102960001B6803F40033002B0AD07D4BD3F8903062
:1029700023F440027B681B6F79491343C1F8903000
:102980007B681B6803F04003002B0AD0744BD3F81C
:10299000903023F003027B685B6C71491343C1F8EC
:1029A00090307B681B6803F08003002B0AD06C4BCF
:1029B000D3F8903023F00C027B689B6C684913437A
:1029C000C1F890307B681B6803F48073002B0AD039
:1029D000634BD3F8903023F030027B68DB6C6049A6
:1029E0001343C1F890307B681B6803F40073002B1D
:1029F0000AD05B4BD3F8903023F0C0027B681B6D8C
:102A000057491343C1F890307B681B6803F4806317
:102A1000002B0AD0524BD3F8903023F440727B68DD
:102A20005B6D4F491343C1F890307B681B6803F41A
:102A30000063002B0AD04A4BD3F8903023F4406255
:102A40007B689B6D46491343C1F890307B681B68D7
:102A500003F48053002B0AD0414BD3F8903023F479
:102A600040527B68DB6D3E491343C1F890307B6870
:102A70001B6803F40053002B0AD0394BD3F8903075
:102A800023F440427B681B6E35491343C1F89030F4
:102A90007B681B6803F48003002B0AD0304BD3F80B
:102AA000903023F080627B689B6F2D491343C1F8FF
:102AB00090307B681B6803F40013002B11D0284B67
:102AC000D3F8903023F000627B68DB6F2449134316
:102AD000C1F890307B68DB6FB3F1006F01D1012347
:102AE000BB617B681B6803F00803002B01D0012346
:102AF000BB617B681B6803F48023002B0AD0184B52
:102B0000D3F8903023F040727B685B6F1449134315
:102B1000C1F890307B681B6803F40003002B0BD0D6
:102B20000F4BD3F8903023F080527B68D3F880307D
:102B30000B491343C1F890307B681B6803F0806336
:102B4000002B0FD0064BD3F8903023F000527B6857
:102B5000D3F8843002491343C1F8903002E000BF3B
:102B6000003802407B681B6803F00063002B0BD029
:102B70008A4BD3F88C3023F000727B68D3F888300E
:102B800086491343C1F88C307B681B6803F080537F
:102B9000002B0BD0814BD3F88C3023F080627B6804
:102BA000D3F88C307D491343C1F88C30FB69012B7D
:102BB00006D07B681B6803F00073002B00F0D68002
:102BC000764B1B68754A23F080631360FEF746FB63
:102BD000786108E0FEF742FB02467B69D31A642B5A
:102BE00001D9032395E16D4B1B6803F00063002BB3
:102BF000F0D17B681B6803F00103002B21D07B68B8
:102C00005B6B002B1DD1654BD3F884301B0C03F09C
:102C100003033B61614BD3F884301B0E03F00F03B9
:102C2000FB607B685B689A013B691B041A43FB6885
:102C30001B061A437B689B681B0758491343C1F85E
:102C400084307B681B6803F40023002B04D07B686E
:102C5000DB6BB3F5801F0AD07B681B6803F480131D
:102C6000002B2ED07B681B6CB3F5800F29D14B4B0A
:102C7000D3F884301B0C03F003033B61474BD3F8BC
:102C800084301B0F03F00703FB607B685B689A01CD
:102C90003B691B041A437B68DB681B061A43FB680D
:102CA0001B073E491343C1F884303C4BD3F88C30AA
:102CB00023F01F027B685B6A013B38491343C1F86C
:102CC0008C307B681B6803F08073002B1DD0334B66
:102CD000D3F884301B0E03F00F033B612F4BD3F866
:102CE00084301B0F03F00703FB607B685B689A016D
:102CF0007B681B691B041A433B691B061A43FB686C
:102D00001B0726491343C1F884307B681B6803F016
:102D10000073002B11D07B685B689A017B681B698C
:102D20001B041A437B68DB681B061A437B689B689D
:102D30001B071A491343C1F88430184B1B68174A04
:102D400043F080631360FEF789FA786108E0FEF7CC
:102D500085FA02467B69D31A642B01D90323D8E094
:102D60000E4B1B6803F00063002BF0D0BB69012BF6
:102D700040F0CE80094B1B68084A23F08053136053
:102D8000FEF76CFA78610BE0FEF768FA02467B69A1
:102D9000D31A642B04D90323BBE000BF00380240E0
:102DA0005E4B1B6803F00053B3F1005FECD07B680F
:102DB0001B6803F40023002B03D07B68DB6B002B24
:102DC00009D07B681B6803F48013002B2ED07B682E
:102DD0001B6C002B2AD1514BD3F888301B0C03F00D
:102DE00003033B614D4BD3F888301B0F03F00703FF
:102DF000FB607B685B699A013B691B041A437B6833
:102E00009B691B061A43FB681B0744491343C1F81F
:102E10008830424BD3F88C3023F4F8527B689B6A9D
:102E2000013B1B023D491343C1F88C307B681B6892
:102E300003F40013002B22D07B68DB6FB3F1006F2B
:102E40001DD1364BD3F888301B0E03F00F033B61C6
:102E5000324BD3F888301B0F03F00703FB607B680D
:102E60005B699A017B681B6A1B041A433B691B065A
:102E70001A43FB681B0729491343C1F888307B6854
:102E80001B6803F00803002B28D0244BD3F88830AC
:102E90001B0E03F00F033B61204BD3F888301B0C53
:102EA00003F00303FB607B685B699A01FB681B040A
:102EB0001A433B691B061A437B68DB691B071749EA
:102EC0001343C1F88830154BD3F88C3023F44032CB
:102ED0007B68DB6A11491343C1F88C300F4B1B68C8
:102EE0000E4A43F080531360FEF7B8F9786108E0AA
:102EF000FEF7B4F902467B69D31A642B01D9032388
:102F000007E0064B1B6803F00053B3F1005FEFD1FD
:102F1000002318462037BD4680BD00BF0038024060
:102F200080B582B000AF78607B68002B01D10123AF
:102F300040E07B68DB6F002B06D17B68002283F8C2
:102F400078207868FDF78AFF7B682422DA677B683F
:102F50001B681A687B681B6822F001021A607B6894
:102F60005B6A002B02D0786800F0DEFB786800F026
:102F700077F90346012B01D101231BE07B681B6815
:102F80005A687B681B6822F490425A607B681B6811
:102F90009A687B681B6822F02A029A607B681B682B
:102FA0001A687B681B6842F001021A60786800F0BA
:102FB0005DFC034618460837BD4680BD80B58AB023
:102FC00002AFF860B9603B601346FB80FB68DB6FC3
:102FD000202B77D1BB68002B02D0FB88002B01D1BE
:102FE000012370E0FB680022C3F88420FB682122E3
:102FF000DA67FEF733F97861FB68FA88A3F85020A6
:10300000FB68FA88A3F85220FB689B68B3F5805FE1
:1030100008D1FB681B69002B04D10023FB61BB684E
:10302000BB6103E0BB68FB610023BB612FE03B6831
:1030300000937B6900228021F86800F0BFFC034602
:10304000002B04D0FB682022DA6703233BE0FB69F6
:10305000002B0BD1BB691B881A46FB681B68C2F3A7
:1030600008029A62BB690233BB6107E0FB691A7808
:10307000FB681B689A62FB690133FB61FB68B3F86C
:1030800052309BB2013B9AB2FB68A3F85220FB6816
:10309000B3F852309BB2002BC9D13B6800937B69D7
:1030A00000224021F86800F089FC0346002B04D080
:1030B000FB682022DA67032305E0FB682022DA6739
:1030C000002300E0022318462037BD4680BD80B5AE
:1030D0008AB002AFF860B9603B601346FB80FB68C2
:1030E000D3F88030202B40F0B580BB68002B02D095
:1030F000FB88002B01D10123ADE0FB680022C3F85F
:103100008420FB682222C3F88020FB6800221A6614
:10311000FEF7A4F87861FB68FA88A3F85820FB68EA
:10312000FA88A3F85A20FB689B68B3F5805F0ED13C
:10313000FB681B69002B05D1FB6840F2FF12A3F866
:103140005C202DE0FB68FF22A3F85C2028E0FB68F0
:103150009B68002B0DD1FB681B69002B04D1FB6819
:10316000FF22A3F85C201BE0FB687F22A3F85C2011
:1031700016E0FB689B68B3F1805F0DD1FB681B69AB
:10318000002B04D1FB687F22A3F85C2008E0FB68D9
:103190003F22A3F85C2003E0FB680022A3F85C2038
:1031A000FB68B3F85C307B82FB689B68B3F5805F9B
:1031B00008D1FB681B69002B04D10023FB61BB68AD
:1031C000BB6103E0BB68FB610023BB6136E03B6889
:1031D00000937B6900222021F86800F0EFFB034692
:1031E000002B05D0FB682022C3F88020032332E0A7
:1031F000FB69002B0CD1FB681B685B6A9AB27B8A67
:1032000013409AB2BB691A80BB690233BB610CE000
:10321000FB681B685B6ADAB27B8ADBB21340DAB206
:10322000FB691A70FB690133FB61FB68B3F85A3024
:103230009BB2013B9AB2FB68A3F85A20FB68B3F833
:103240005A309BB2002BC2D1FB682022C3F88020E9
:10325000002300E0022318462037BD4680BD000051
:1032600080B588B000AF78600023BB777B689A6830
:103270007B681B691A437B685B691A437B68DB695F
:1032800013437B617B681B681A68A64B13407A68FE
:10329000126879690B4313607B681B685B6823F4D1
:1032A00040517B68DA687B681B680A435A607B6818
:1032B0009B697B617B681B6A7A6913437B617B68CE
:1032C0001B689B6823F430617B681B687A690A433A
:1032D0009A607B681B68944A934220D1934BD3F841
:1032E000903003F00303032B16D801A252F823F009
:1032F000013300080D3300080733000813330008BA
:103300000123FB7750E10223FB774DE10423FB7798
:103310004AE10823FB7747E11023FB7744E17B6810
:103320001B68834A934232D1804BD3F8903003F02C
:103330000C030C2B28D801A252F823F0713300089B
:103340008933000889330008893300087D33000879
:10335000893300088933000889330008773300086F
:103360008933000889330008893300088333000853
:103370000023FB7718E10223FB7715E10423FB7799
:1033800012E10823FB770FE11023FB770CE17B6848
:103390001B68684A934220D1644BD3F8903003F005
:1033A0003003302B13D0302B14D8202B09D0202BF6
:1033B00010D8002B02D0102B06D00BE00023FB7797
:1033C000F2E00223FB77EFE00423FB77ECE0082335
:1033D000FB77E9E01023FB77E6E07B681B68564A41
:1033E000934220D1514BD3F8903003F0C003C02B4F
:1033F00013D0C02B14D8802B09D0802B10D8002BD1
:1034000002D0402B06D00BE00023FB77CCE0022358
:10341000FB77C9E00423FB77C6E00823FB77C3E012
:103420001023FB77C0E07B681B68444A934225D198
:103430003E4BD3F8903003F44073B3F5407F17D080
:10344000B3F5407F17D8B3F5007F0BD0B3F5007FFD
:1034500011D8002B03D0B3F5807F06D00BE00023FA
:10346000FB77A1E00223FB779EE00423FB779BE040
:103470000823FB7798E01023FB7795E07B681B68B7
:103480002F4A934225D1294BD3F8903003F440635F
:10349000B3F5406F17D0B3F5406F17D8B3F5006F91
:1034A0000BD0B3F5006F11D8002B03D0B3F5806FAC
:1034B00006D00BE00123FB7776E00223FB7773E075
:1034C0000423FB7770E00823FB776DE01023FB7784
:1034D0006AE07B681B681B4A934238D1134BD3F8D0
:1034E000903003F44053B3F5405F17D0B3F5405F1D
:1034F0002AD8B3F5005F0BD0B3F5005F24D8002BBA
:1035000003D0B3F5805F06D01EE00023FB774BE0CD
:103510000223FB7748E00423FB7745E00823FB7791
:1035200042E000BFF369FFEF0010014000380240A5
:103530000044004000480040004C00400050004063
:1035400000140140007800401023FB772CE07B68DA
:103550001B68724A934225D1714BD3F8903003F423
:103560004043B3F5404F17D0B3F5404F17D8B3F5EC
:10357000004F0BD0B3F5004F11D8002B03D0B3F59B
:10358000804F06D00BE00023FB770DE00223FB7792
:103590000AE00423FB7707E00823FB7704E010230D
:1035A000FB7701E01023FB777B68DB69B3F5004F05
:1035B0005BD1FB7F082B28D801A252F823F000BF73
:1035C000E5350008ED350008F53500080B36000834
:1035D000FB3500080B3600080B3600080B360008D8
:1035E00003360008FFF74CF8B86113E0FFF75CF80A
:1035F000B8610FE04B4BBB610CE0FEF76FFFB861A9
:1036000008E04FF40043BB6104E00023BB610123E9
:10361000BB7700BFBB69002B74D0BB695A007B68C5
:103620005B685B081A447B685B68B2FBF3F33B6141
:103630003B690F2B16D93B69B3F5803F12D23B692A
:103640009BB223F00F03FB813B695B089BB203F045
:1036500007039AB2FB891343FB817B681B68FA89D5
:10366000DA604FE00123BB774CE0FB7F082B28D8C2
:1036700001A252F823F000BF9D360008A5360008CD
:10368000AD360008C3360008B3360008C33600085C
:10369000C3360008C3360008BB360008FEF7F0FF4B
:1036A000B86113E0FFF700F8B8610FE01D4BBB6194
:1036B0000CE0FEF713FFB86108E04FF40043BB6174
:1036C00004E00023BB610123BB7700BFBB69002B73
:1036D00018D07B685B685A08BB691A447B685B68D2
:1036E000B2FBF3F33B613B690F2B09D93B69B3F59F
:1036F000803F05D23B699AB27B681B68DA6001E0C3
:103700000123BB777B6800229A667B680022DA6619
:10371000BB7F18462037BD4680BD00BF007C0040FF
:10372000003802400024F40080B483B000AF786019
:103730007B685B6A03F00803002B0AD07B681B6878
:103740005B6823F400417B685A6B7B681B680A4303
:103750005A607B685B6A03F00103002B0AD07B6828
:103760001B685B6823F400317B689A6A7B681B687E
:103770000A435A607B685B6A03F00203002B0AD09D
:103780007B681B685B6823F480317B68DA6A7B683E
:103790001B680A435A607B685B6A03F00403002BD2
:1037A0000AD07B681B685B6823F480217B681A6BF6
:1037B0007B681B680A435A607B685B6A03F01003EE
:1037C000002B0AD07B681B689B6823F480517B68C0
:1037D0009A6B7B681B680A439A607B685B6A03F09C
:1037E0002003002B0AD07B681B689B6823F40051E0
:1037F0007B68DA6B7B681B680A439A607B685B6A4C
:1038000003F04003002B1AD07B681B685B6823F42D
:1038100080117B681A6C7B681B680A435A607B685E
:103820001B6CB3F5801F0AD17B681B685B6823F4AF
:10383000C0017B685A6C7B681B680A435A607B68CE
:103840005B6A03F08003002B0AD07B681B685B680F
:1038500023F400217B689A6C7B681B680A435A60DA
:1038600000BF0C37BD465DF8047B704780B598B04B
:1038700002AF78607B680022C3F88420FDF7EEFC7D
:1038800078657B681B681B6803F00803082B2ED142
:103890006FF07E4300937B6D00224FF40011786837
:1038A00000F08CF80346002B21D07B681B68BB63BB
:1038B000BB6B53E8003F7B637B6B23F080033B656E
:1038C0007B681B681A463B6D7B643A64396C7A6C82
:1038D00041E80023FB63FB6B002BE6D17B682022D1
:1038E000DA677B68002283F87820032362E07B6834
:1038F0001B681B6803F00403042B49D16FF07E435F
:1039000000937B6D00224FF48001786800F056F838
:103910000346002B3CD07B681B687B627B6A53E8C4
:10392000003F3B623B6A23F49073FB647B681B6837
:103930001A46FB6C3B63FA62F96A3A6B41E8002372
:10394000BB62BB6A002BE6D17B681B6808333B6116
:103950003B6953E8003FFB60FB6823F00103BB6455
:103960007B681B680833BA6CFA61BB61B969FA6994
:1039700041E800237B617B69002BE5D17B68202235
:10398000C3F880207B68002283F87820032311E0AD
:103990007B682022DA677B682022C3F880207B685E
:1039A00000221A667B6800225A667B68002283F830
:1039B0007820002318465837BD4680BD80B584B0B6
:1039C00000AFF860B9603B601346FB714FE0BB6924
:1039D000B3F1FF3F4BD0FDF741FC02463B68D31AE1
:1039E000BA699A4202D3BB69002B01D103234EE08E
:1039F000FB681B681B6803F00403002B37D0BB680F
:103A0000802B34D0BB68402B31D0FB681B68DB694E
:103A100003F00803082B10D1FB681B6808221A6208
:103A2000F86800F038F8FB680822C3F88420FB68C7
:103A3000002283F87820012329E0FB681B68DB69FA
:103A400003F40063B3F5006F11D1FB681B684FF4FA
:103A500000621A62F86800F01EF8FB682022C3F8C2
:103A60008420FB68002283F8782003230FE0FB68A2
:103A70001B68DA69BB681340BA689A420CBF01231D
:103A80000023DBB21A46FB799A42A0D000231846E5
:103A90001037BD4680BD80B495B000AF78607B68BC
:103AA0001B687B637B6B53E8003F3B633B6B23F4FA
:103AB0009073FB647B681B681A46FB6C3B64FA637B
:103AC000F96B3A6C41E80023BB63BB6B002BE6D17A
:103AD0007B681B6808333B623B6A53E8003FFB612D
:103AE000FB6923F00103BB647B681B680833BA6C75
:103AF000FA62BB62B96AFA6A41E800237B627B6AB8
:103B0000002BE5D17B681B6E012B18D17B681B68ED
:103B1000FB60FB6853E8003FBB60BB6823F0100309
:103B20007B647B681B681A467B6CBB617A61796930
:103B3000BA6941E800233B613B69002BE6D17B6811
:103B40002022C3F880207B6800221A667B6800224E
:103B50009A6600BF5437BD465DF8047B704700008D
:103B6000002310B50446C0E90033C0E90433836084
:103B700081814366C2818361194608225C3000F06E
:103B8000F9F90D4B63620D4BA3620D4BE3620D4BD4
:103B900023630D4B24629C4206D003F168029442D9
:103BA00002D0D0339C4205D104F15800BDE810404A
:103BB00000F058BA10BD00BFC53D0008E73D000841
:103BC0001F3E0008433E0008D0050020024A03497A
:103BD000034800F069B800BF0C0000200549000848
:103BE0001C00002041680C4B994210B5044601D0DE
:103BF00000F088FEA168094B994202D0204600F0EF
:103C000081FEE168064B994204D02046BDE8104091
:103C100000F078BE10BD00BFD0050020380600209F
:103C2000A006002010B50B4B0B4C0C4A1A60204626
:103C300000220421FFF794FF04F16800012209210A
:103C4000FFF78EFF04F1D0000222BDE810401221E0
:103C5000FFF786BF08070020D0050020CD3B0008F5
:103C6000014800F000BA00BF11070020014800F031
:103C7000FBB900BF1107002010B50446FFF7F0FFA5
:103C8000236A1BB1BDE81040FFF7F0BF044B23626D
:103C9000044B1B68002BF5D1FFF7C4FFF2E700BF10
:103CA000E53B0008080700202DE9F8430746884651
:103CB00014460026D4E90195B9F1010905D5246817
:103CC000002CF7D13046BDE8F883AB89012B07D92A
:103CD000B5F90E30013303D029463846C0470643B4
:103CE0006835E9E70FB407B5064904AB086853F82F
:103CF000042B8168019300F0DBFA03B05DF804EB5C
:103D000004B0704718000020036A70B58468054647
:103D10000E460BB9FFF7B0FF636EDB0705D4A3892E
:103D2000980502D4A06D00F09EF9A389190702D569
:103D30002369002B35D12146284600F0C5F880B311
:103D40004FF0FF35636EDA0705D4A3899B0502D4D3
:103D5000A06D00F089F9284670BD002B04DAA26935
:103D60009A4217DC0A2915D023685A1C2260197060
:103D7000A36816F8011F013BA3600029EDD1002BB9
:103D800011DA22460A21284600F05FF80130D7D028
:103D90000A25D7E72246284600F057F80130E7D138
:103DA000CEE7013EE4E723685A1C22600A221A701B
:103DB000EEE70000024B01461868FFF7A5BF00BF01
:103DC0001800002010B50C46B1F90E1000F0FCF8F8
:103DD0000028ABBF636DA3891B1823F48053ACBFCD
:103DE0006365A38110BD2DE9F0411F468B89DB057A
:103DF00005460C46164605D5B1F90E1002230022E1
:103E000000F0D0F8A389B4F90E1023F48053A381F5
:103E100032463B462846BDE8F04100F0E7B810B511
:103E20000C46B1F90E1000F0BDF8431CA38915BF74
:103E3000606523F4805343F48053A38118BFA381AA
:103E400010BDB1F90E1000F09DB8F8B50E4614463D
:103E5000054618B1036A0BB9FFF70EFFA369A3600B
:103E6000A3891A0701D5236943B92146284600F0E2
:103E70002BF818B14FF0FF373846F8BD2368226998
:103E8000981A6369F6B28342374605DC2146284614
:103E900000F038FD0028EDD1A368013BA360236842
:103EA0005A1C22601E706269431C9A4204D0A38986
:103EB000DB07E1D50A2EDFD12146284600F022FD9E
:103EC0000028D9D0D6E7000038B5294B0546186838
:103ED0000C4618B1036A0BB9FFF7CEFEB4F90C30EB
:103EE000190722D4DA0607D409222A6043F04003D6
:103EF000A3814FF0FF3033E0580712D5616B41B119
:103F000004F14403994202D0284600F0AFF80023A0
:103F10006363A38923F02403A381002363602369DF
:103F20002360A38943F00803A38123694BB9A389C4
:103F300003F42073B3F5007F03D02146284600F038
:103F40002FFDB4F90C3013F001020AD00022A26058
:103F500062695242A261226942B913F08000C5D160
:103F600038BD990758BF6269A260F4E70020F7E7FF
:103F70001800002002440346934200D1704703F822
:103F8000011BF9E738B5064D0023044608462B60AF
:103F9000FDF76EF8431C02D12B6803B1236038BDD6
:103FA0000C07002038B5074D04460846114600228C
:103FB0002A601A46FDF783F8431C02D12B6803B12F
:103FC000236038BD0C07002038B5074D044608466D
:103FD000114600222A601A46FDF711F8431C02D14F
:103FE0002B6803B1236038BD0C07002038B5074D9E
:103FF00004460846114600222A601A46FDF71CF8BE
:10400000431C02D12B6803B1236038BD0C0700208C
:10401000014B1868704700BF1800002070B50D4DA7
:104020000D4C641BA4100026A64209D10B4D0C4C6C
:1040300000F024FD641BA4100026A64205D170BD2B
:1040400055F8043B98470136EEE755F8043B98478E
:104050000136F2E7E84C0008E84C0008E84C00089C
:10406000EC4C0008704770477047000038B50546B3
:10407000002941D051F8043C0C1F002BB8BFE418B4
:1040800000F0E0F81D4A136833B9636014602846F5
:10409000BDE8384000F0DCB8A34208D920682118F8
:1040A0008B4201BF19685B6809182160EDE71A4669
:1040B0005B680BB1A342FAD911685018A0420BD12A
:1040C00020680144501883421160E0D118685B6891
:1040D000536008441060DAE702D90C232B60D6E75E
:1040E000206821188B4204BF19685B68636004BFB5
:1040F000091821605460CAE738BD00BF18070020C6
:1041000070B50F4E0C463168054611B900F0A6FC9B
:1041100030602146284600F0A1FC431C03D14FF03B
:10412000FF34204670BDC41C24F00304A042F8D024
:10413000211A284600F092FC0130F2D1EFE700BFCF
:10414000140700202DE9F843CD1C25F003050835A0
:104150000C2D38BF0C25002D064601DBA94204D9E1
:104160000C2333600020BDE8F883DFF8D48000F032
:1041700069F8D8F800301C4644BB29463046FFF7A2
:10418000BFFF431C044658D1D8F800402746002FF3
:1041900043D1002C4BD023683946304604EB030949
:1041A00000F05CFC814542D121686D1A29463046F9
:1041B000FFF7A6FF01303AD023682B442360D8F8DC
:1041C00000305A6862BBC8F800700FE02268521BCA
:1041D00020D40B2A17D96119A342256018BF596052
:1041E000636808BFC8F8001062514B60304600F0A9
:1041F0002FF804F10B00231D20F00700C21A1CBF8A
:104200001B1AA350AFE76268A3420CBFC8F8002096
:104210005A60EBE723466468AEE73C467F68B6E742
:104220001A465B68A342FBD100235360DEE70C23F0
:104230003360304600F00CF894E70560D6E700BF25
:10424000180700200148FFF70EBF00BF100700202D
:104250000148FFF709BF00BF100700209368013B2A
:10426000002B10B4936008DA9469A34201DB0A2999
:1042700003D15DF8044BFFF7E8BD1368581C1060CC
:10428000197008465DF8044B7047F8B506460F46AE
:104290001446D518AC4201D1002007E014F8011BE8
:1042A0003A463046FFF7DAFF431CF3D1F8BD000071
:1042B0002DE9F04F0D469DB014469846064618B1BC
:1042C000036A0BB9FFF7D8FC6B6ED90705D4AB892D
:1042D0009A0502D4A86DFFF7C6FEAB891B0701D56E
:1042E0002B699BB929463046FFF7EEFD70B16B6E26
:1042F000DC0704D54FF0FF301DB0BDE8F08FAB896F
:104300009805F7D4A86DFFF7AFFEF3E700230993F4
:1043100020238DF82930CDF80C803023DFF8AC81D4
:104320008DF82A304FF0010923469A4613F8012BE5
:104330000AB1252AF9D1BAEB040B0BD05B46224611
:1043400029463046FFF7A1FF013000F0A780099A07
:104350005A4409929AF80030002B00F09F80002305
:104360004FF0FF32CDE905230AF1010A04930793C8
:104370008DF853301A935446052214F8011B534804
:10438000FBF75EFF049AD8B9D10644BF20238DF80D
:104390005330130744BF2B238DF853309AF8003065
:1043A0002A2B15D0079A544600204FF00A0C2146BC
:1043B00011F8013B303B092B4BD9B0B1079214E007
:1043C000A0EB080309FA03F313430493A246D2E7D0
:1043D000039B191D1B680391002BBBBF5B4242F07E
:1043E000020207930793B8BF049223782E2B0AD1B9
:1043F00063782A2B32D1039B1A1D1B68039243EA70
:10440000E37302340593DFF8D4A0217803225046E9
:10441000FBF716FF38B1049BA0EB0A004022824054
:1044200013430134049314F8011B29488DF8281014
:104430000622FBF705FF00283FD0264B1BBB039B42
:10444000073323F0070308330393099B3B44099385
:104450006AE70CFB02320C460120A8E70023013476
:10446000059319464FF00A0C204610F8012B303AFC
:10447000092A03D9002BC6D00591C4E70CFB012102
:1044800004460123F0E703AB00932A46124B04A92C
:104490003046AFF300800746781CD6D16B6ED90743
:1044A00005D4AB899A0502D4A86DFFF7DDFDAB8971
:1044B0005B063FF51FAF09981EE703AB00932A4642
:1044C000054B04A9304600F079F8E4E7AC4C00084D
:1044D000B64C0008000000008B420008B24C0008F7
:1044E0002DE9F047164698468A680B69DDF820905A
:1044F0009342B8BF1346336091F8432007460C46F9
:104500000AB1013333602368990642BF336802332E
:104510003360256815F0060506D104F1190AE36831
:1045200032689B1AAB4226DC94F843302268003B89
:1045300018BF012392062BD404F1430241463846AA
:10454000C84701301ED02368226903F00603042BFC
:1045500002BFE5683368ED1AA3680CBF25EAE5756C
:1045600000259342C4BF9B1AED1800261A34B542A9
:104570001AD1002008E00123524641463846C84778
:10458000013003D14FF0FF30BDE8F0870135C6E7B9
:10459000E1185A1C302081F84300224494F8451059
:1045A00082F843100233C7E70123224641463846CA
:1045B000C8470130E6D00136D9E700002DE9FF47B2
:1045C0000F7E0C9E782F914680460C469A4601F14C
:1045D000430207D8622F0AD8002F00F0D280582F4C
:1045E00000F0B98004F1420684F842703AE0A7F185
:1045F0006303152BF6D801A151F823F055460008A6
:1046000069460008E5450008E5450008E54500085D
:10461000E545000869460008E5450008E54500084D
:10462000E5450008E545000869470008934600088D
:1046300023470008E5450008E54500088B470008CA
:10464000E545000893460008E5450008E5450008F3
:104650002B47000833681A1D1B68326004F14206BC
:1046600084F8423001239DE033682068191D3160D1
:10467000060601D51D6803E04506FBD5B3F90050D9
:10468000002D03DA2D236D4284F8433059480A2364
:1046900011E021683368080653F8045B02D4490628
:1046A00048BFADB26F2F5348336014BF0A230823AD
:1046B000002184F843106668A660002EA2BF21681E
:1046C00021F0040121600DB9002E4BD01646B5FB38
:1046D000F3F103FB1157C75D06F8017D2F46BB427E
:1046E0000D46F4D9082B0BD12368DF0708D52369C1
:1046F00061689942DEBF302306F8013C06F1FF36BF
:10470000921B2261CDF800A04B4603AA21464046E9
:10471000FFF7E6FE01304AD14FF0FF3004B0BDE8AC
:10472000F087236843F0200323603348782784F818
:104730004570236831681F0651F8045B02D45F0698
:1047400048BFADB23160D90744BF43F020032360B6
:104750001DB11023ACE72748E9E7236823F02003C5
:104760002360F6E71646BDE7336825686169181DC2
:1047700030602E061B6801D5196002E06806FBD583
:104780001980002323611646BCE733681A1D326086
:104790001E68626800213046FBF752FD08B1801B9D
:1047A000606063682361002384F84330AAE72369CB
:1047B000324649464046D0470130ADD023689B077A
:1047C00013D4E068039B9842B8BF1846A6E70123BC
:1047D000324649464046D04701309DD00135E36816
:1047E00003995B1AAB42F2DCEBE7002504F11906F2
:1047F000F5E700BFBD4C0008CE4C0008B1F90C2015
:104800002DE9F041160705460C4654D44B68002BA1
:1048100002DC0B6C002B48DDE66A002E45D000233D
:1048200012F480522F68216A2B6030D0626DA38908
:10483000590705D56368D21A636B0BB1236CD21A82
:104840000023E66A216A2846B047431CA38906D1A3
:1048500029681D292BD82A4A0A41D60727D40022C5
:104860006260D9042269226004D5421C01D12B6800
:1048700003B96065616B2F60B9B104F144039942DB
:1048800002D02846FFF7F2FB002363630DE001230B
:104890002846B0470246501CC9D12B68002BC6D011
:1048A0001D2B01D0162B1ED12F60002022E043F0DB
:1048B00040031BB21BE00F69002FF6D093070E6870
:1048C00008BF4B690F6018BF0023A6EB07088B6079
:1048D000B8F1000FE9DD216AA66A43463A46284648
:1048E000B047002808DCB4F90C3043F04003A38142
:1048F0004FF0FF30BDE8F0810744A8EB0008E7E780
:10490000FEFFBFDF38B50B6905460C4613B900251D
:10491000284638BD18B1036A0BB9FFF7ADF9B4F9F1
:104920000C30002BF3D0626ED00704D4990502D46A
:10493000A06DFFF798FB28462146FFF75FFF636EE7
:10494000DA070546E4D4A3899B05E1D4A06DFFF7FF
:104950008BFBDDE770B50C46B1F90E10002996B05F
:1049600015461E460DDAA38913F0800F4FF00001A3
:1049700014BF40234FF48063002031602B6016B0D9
:1049800070BD6A4600F048F80028ECDB019901F49C
:104990007041A1F50053594259414FF48063EBE750
:1049A0008B89F7B59D0706460C4607D504F14703EA
:1049B000236023610123636103B0F0BD01AB6A464C
:1049C000FFF7C8FF009F054639463046FFF7BAFBA0
:1049D00048B9B4F90C309A05EED423F0030343F040
:1049E0000203A381E2E7A389206043F08003A3814F
:1049F000019BC4E904075BB1B4F90E10304600F026
:104A00001DF828B1A38923F0030343F00103A38118
:104A1000A3891D43A581CFE738B5074D0023044680
:104A2000084611462B60FCF72FFB431C02D12B6874
:104A300003B1236038BD00BF0C07002038B5064D18
:104A40000023044608462B60FCF72EFB431C02D1D2
:104A50002B6803B1236038BD0C07002038B5064D24
:104A60000023044608462B60FCF736FB431C02D1AA
:104A70002B6803B1236038BD0C070020F8B500BFD8
:104A8000F8BC08BC9E467047F8B500BFF8BC08BC2F
:044A90009E46704787
:104A940057616974696E6720666F72207468652057
:104AA4004F544120646174612E2E2E0D00000000CD
:104AB40053656E64696E67204E41434B0D000000E0
:104AC4004554585F4F54415F53544154455F4944E2
:104AD4004C452E2E2E0D0000526563656976656483
:104AE400204F544120535441525420436F6D6D6103
:104AF4006E640D005265636569766564204F5441A8
:104B0400204865616465722E2046572053697A6592
:104B1400203D20256C640D0A000000005B256C64B8
:104B24002F256C645D0D0A005265636569766564C2
:104B3400204F544120454E4420436F6D6D616E6497
:104B44000D0000005265636569766564206D6F72BF
:104B5400652064617461207468616E206578706595
:104B6400637465642E204578706563746564203DC4
:104B74002025642C205265636569766564203D2098
:104B840025640D0A0000000045726173696E672098
:104B940074686520466C617368206D656D6F727909
:104BA4002E2E2E0D00000000466C61736820577293
:104BB400697465204572726F720D000053746172DE
:104BC40074696E6720426F6F746C6F6164657220E4
:104BD40025642E25640A000050726573732074687E
:104BE40065205573657220427574746F6E2050434E
:104BF400313320746F2074726967676572204F5473
:104C040041207570646174652E2E2E0D0000000025
:104C14005374617274696E67204669726D7761724C
:104C24006520446F776E6C6F61642121210D000053
:104C34004F544120557064617465203A20455252A6
:104C44004F522121212048414C542121210D0000A3
:104C54004669726D77617265207570646174652050
:104C6400697320646F6E65212121205265626F6F24
:104C740074696E672E2E2E0D000000004A756D704B
:104C840020746F206170706C69636174696F6E0069
:104C940000000000000000000102030406070809E8
:104CA4000000000001020304232D302B2000686C57
:104CB4004C0065666745464700303132333435363B
:104CC4003738394142434445460030313233343574
:0C4CD400363738396162636465660000A1
:084CE00060B5FF7F0100000038
:044CE8002502000899
:044CEC0001020008B9
:104CF0000024F4001000000001000000000000008B
:104D000003000000D00500201C000020000000006F
:104D1000D005002038060020A0060020000000007A
:104D20000000000000000000000000000000000083
:104D30000000000000000000000000000000000073
:104D40000000000000000000000000000000000063
:084D500000000000000000005B
:040000050800116975
:00000001FF
